{
  "address": "0x832deC3B7777E45C2B07859Ac62435872C5B8263",
  "abi": [
    {
      "inputs": [
        {
          "internalType": "address",
          "name": "_tokenAddress",
          "type": "address"
        }
      ],
      "stateMutability": "nonpayable",
      "type": "constructor"
    },
    {
      "anonymous": false,
      "inputs": [
        {
          "indexed": true,
          "internalType": "address",
          "name": "user",
          "type": "address"
        },
        {
          "indexed": false,
          "internalType": "uint256",
          "name": "amount",
          "type": "uint256"
        }
      ],
      "name": "GotDripped",
      "type": "event"
    },
    {
      "anonymous": false,
      "inputs": [
        {
          "indexed": true,
          "internalType": "address",
          "name": "previousOwner",
          "type": "address"
        },
        {
          "indexed": true,
          "internalType": "address",
          "name": "newOwner",
          "type": "address"
        }
      ],
      "name": "OwnershipTransferred",
      "type": "event"
    },
    {
      "anonymous": false,
      "inputs": [
        {
          "indexed": true,
          "internalType": "address",
          "name": "user",
          "type": "address"
        },
        {
          "indexed": false,
          "internalType": "uint256",
          "name": "amount",
          "type": "uint256"
        }
      ],
      "name": "Pooled",
      "type": "event"
    },
    {
      "inputs": [
        {
          "internalType": "uint256",
          "name": "_amount",
          "type": "uint256"
        }
      ],
      "name": "DonationPool",
      "outputs": [],
      "stateMutability": "nonpayable",
      "type": "function"
    },
    {
      "inputs": [],
      "name": "Limit",
      "outputs": [
        {
          "internalType": "uint256",
          "name": "",
          "type": "uint256"
        }
      ],
      "stateMutability": "view",
      "type": "function"
    },
    {
      "inputs": [],
      "name": "Total_Donated",
      "outputs": [
        {
          "internalType": "uint256",
          "name": "",
          "type": "uint256"
        }
      ],
      "stateMutability": "view",
      "type": "function"
    },
    {
      "inputs": [],
      "name": "Total_Drip_Pool",
      "outputs": [
        {
          "internalType": "uint256",
          "name": "",
          "type": "uint256"
        }
      ],
      "stateMutability": "view",
      "type": "function"
    },
    {
      "inputs": [],
      "name": "Total_Dripped",
      "outputs": [
        {
          "internalType": "uint256",
          "name": "",
          "type": "uint256"
        }
      ],
      "stateMutability": "view",
      "type": "function"
    },
    {
      "inputs": [],
      "name": "drip",
      "outputs": [],
      "stateMutability": "nonpayable",
      "type": "function"
    },
    {
      "inputs": [
        {
          "internalType": "address",
          "name": "",
          "type": "address"
        }
      ],
      "name": "drippers",
      "outputs": [
        {
          "internalType": "uint256",
          "name": "timeDripped",
          "type": "uint256"
        },
        {
          "internalType": "bool",
          "name": "gotDripped",
          "type": "bool"
        },
        {
          "internalType": "uint256",
          "name": "Total_AllTime_Dripped",
          "type": "uint256"
        }
      ],
      "stateMutability": "view",
      "type": "function"
    },
    {
      "inputs": [],
      "name": "driptoken",
      "outputs": [
        {
          "internalType": "contract ERC20",
          "name": "",
          "type": "address"
        }
      ],
      "stateMutability": "view",
      "type": "function"
    },
    {
      "inputs": [],
      "name": "owner",
      "outputs": [
        {
          "internalType": "address",
          "name": "",
          "type": "address"
        }
      ],
      "stateMutability": "view",
      "type": "function"
    },
    {
      "inputs": [],
      "name": "renounceOwnership",
      "outputs": [],
      "stateMutability": "nonpayable",
      "type": "function"
    },
    {
      "inputs": [
        {
          "internalType": "address",
          "name": "newOwner",
          "type": "address"
        }
      ],
      "name": "transferOwnership",
      "outputs": [],
      "stateMutability": "nonpayable",
      "type": "function"
    }
  ],
  "transactionHash": "0xee6a8148292c55d25186d78c1a7f0eed2c4e6880eedc248fd930177a08fe22ec",
  "args": [
    "0x2C3aFc7E571cAF77C52505c46c33Bb493BF48264"
  ],
  "numDeployments": 1,
  "solcInputHash": "a78c57ca126e8a84fe9be272a164e444",
  "bytecode": "0x6080604052690124bc0ddd92e560000060035569014542ba12a337c0000060045534801561002c57600080fd5b50604051610cc2380380610cc283398101604081905261004b916100c9565b61005433610079565b600280546001600160a01b0319166001600160a01b03929092169190911790556100f9565b600080546001600160a01b038381166001600160a01b0319831681178455604051919092169283917f8be0079c531659141344cd1fd0a4f28419497f9722a3daafe3b4186f6b6457e09190a35050565b6000602082840312156100db57600080fd5b81516001600160a01b03811681146100f257600080fd5b9392505050565b610bba806101086000396000f3fe608060405234801561001057600080fd5b50600436106100c95760003560e01c80638da5cb5b11610081578063e62e3e1e1161005b578063e62e3e1e14610169578063ea838aee14610189578063f2fde38b146101d857600080fd5b80638da5cb5b146101195780639f678cca14610158578063cc0860b51461016057600080fd5b80635a4d2eaa116100b25780635a4d2eaa146100f3578063715018a6146101085780637f479e3c1461011057600080fd5b80630e6d429d146100ce5780634f057506146100ea575b600080fd5b6100d760075481565b6040519081526020015b60405180910390f35b6100d760045481565b610106610101366004610ac1565b6101eb565b005b61010661041c565b6100d760065481565b60005473ffffffffffffffffffffffffffffffffffffffff165b60405173ffffffffffffffffffffffffffffffffffffffff90911681526020016100e1565b610106610430565b6100d760055481565b6002546101339073ffffffffffffffffffffffffffffffffffffffff1681565b6101bd610197366004610ada565b600160208190526000918252604090912080549181015460029091015460ff9091169083565b604080519384529115156020840152908201526060016100e1565b6101066101e6366004610ada565b610914565b6002546040517f70a0823100000000000000000000000000000000000000000000000000000000815233600482015260009173ffffffffffffffffffffffffffffffffffffffff16906370a0823190602401602060405180830381865afa15801561025a573d6000803e3d6000fd5b505050506040513d601f19601f8201168201806040525081019061027e9190610b17565b1015610311576040517f08c379a000000000000000000000000000000000000000000000000000000000815260206004820152602960248201527f596f752063616e6e6f7420706f6f6c206d6f726520746f6b656e73207468616e60448201527f20796f7520686f6c64000000000000000000000000000000000000000000000060648201526084015b60405180910390fd5b6002546040517f23b872dd0000000000000000000000000000000000000000000000000000000081523360048201523060248201526044810183905273ffffffffffffffffffffffffffffffffffffffff909116906323b872dd906064016020604051808303816000875af115801561038e573d6000803e3d6000fd5b505050506040513d601f19601f820116820180604052508101906103b29190610b30565b5080600660008282546103c59190610b81565b9250508190555080600560008282546103de9190610b81565b909155505060405181815233907f423eb3fc7f00914fa251f391851045c36a87052e7afb63e89ad6991b56a6c617906020015b60405180910390a250565b6104246109cb565b61042e6000610a4c565b565b6002546040517f70a08231000000000000000000000000000000000000000000000000000000008152306004820152682086ac35105260000091829173ffffffffffffffffffffffffffffffffffffffff909116906370a0823190602401602060405180830381865afa1580156104ab573d6000803e3d6000fd5b505050506040513d601f19601f820116820180604052508101906104cf9190610b17565b101561055d576040517f08c379a000000000000000000000000000000000000000000000000000000000815260206004820152602360248201527f4e6f7420656e6f75676820746f6b656e7320696e2066617563657420746f206460448201527f72697000000000000000000000000000000000000000000000000000000000006064820152608401610308565b6002546040517f70a0823100000000000000000000000000000000000000000000000000000000815233600482015260069173ffffffffffffffffffffffffffffffffffffffff16906370a0823190602401602060405180830381865afa1580156105cc573d6000803e3d6000fd5b505050506040513d601f19601f820116820180604052508101906105f09190610b17565b1115610717576040517f08c379a00000000000000000000000000000000000000000000000000000000081526020600482015260b560248201527f205468697320666175636574206f6e6c7920647269707320746f20746865206c60448201527f65737320666f7274756e6174652c206f6e2d626f617264657273206f7220746860648201527f6f736520686f617264696e6720746865697220746f74616c2062616c616e636560848201527f20696620796f75206861766520746f6b656e7320616c726561647920796f752060a48201527f636f756c6420646f6e6174652c20737761702c206f7220686f6172642074686560c48201527f6d20746f207573652066617563657420616761696e000000000000000000000060e482015261010401610308565b6003543360009081526001602052604090206002015411156107bb576040517f08c379a000000000000000000000000000000000000000000000000000000000815260206004820152602160248201527f596f75207265616368656420746865206d6178206472697073206f662036303060448201527f30000000000000000000000000000000000000000000000000000000000000006064820152608401610308565b6002546040517fa9059cbb0000000000000000000000000000000000000000000000000000000081523360048201526024810183905273ffffffffffffffffffffffffffffffffffffffff9091169063a9059cbb906044016020604051808303816000875af1158015610832573d6000803e3d6000fd5b505050506040513d601f19601f820116820180604052508101906108569190610b30565b50336000908152600160208190526040822080820180547fffffffffffffffffffffffffffffffffffffffffffffffffffffffffffffff001690921790915542815560020180548392906108ab908490610b81565b9250508190555080600660008282546108c49190610b9a565b9250508190555080600760008282546108dd9190610b81565b909155505060405181815233907f0ac1452b69e769dcaadec371591a3059dd6b6d306d09e0f9d6694cefd78a5ed490602001610411565b61091c6109cb565b73ffffffffffffffffffffffffffffffffffffffff81166109bf576040517f08c379a000000000000000000000000000000000000000000000000000000000815260206004820152602660248201527f4f776e61626c653a206e6577206f776e657220697320746865207a65726f206160448201527f64647265737300000000000000000000000000000000000000000000000000006064820152608401610308565b6109c881610a4c565b50565b60005473ffffffffffffffffffffffffffffffffffffffff16331461042e576040517f08c379a000000000000000000000000000000000000000000000000000000000815260206004820181905260248201527f4f776e61626c653a2063616c6c6572206973206e6f7420746865206f776e65726044820152606401610308565b6000805473ffffffffffffffffffffffffffffffffffffffff8381167fffffffffffffffffffffffff0000000000000000000000000000000000000000831681178455604051919092169283917f8be0079c531659141344cd1fd0a4f28419497f9722a3daafe3b4186f6b6457e09190a35050565b600060208284031215610ad357600080fd5b5035919050565b600060208284031215610aec57600080fd5b813573ffffffffffffffffffffffffffffffffffffffff81168114610b1057600080fd5b9392505050565b600060208284031215610b2957600080fd5b5051919050565b600060208284031215610b4257600080fd5b81518015158114610b1057600080fd5b7f4e487b7100000000000000000000000000000000000000000000000000000000600052601160045260246000fd5b80820180821115610b9457610b94610b52565b92915050565b81810381811115610b9457610b94610b5256fea164736f6c6343000814000a",
  "devdoc": {
    "author": "@moneyhoardermike with help from Polygon Copilot",
    "kind": "dev",
    "methods": {
      "drip()": {
        "details": "Owner must have enough balance of token to use this function."
      },
      "owner()": {
        "details": "Returns the address of the current owner."
      },
      "renounceOwnership()": {
        "details": "Leaves the contract without owner. It will not be possible to call `onlyOwner` functions. Can only be called by the current owner. NOTE: Renouncing ownership will leave the contract without an owner, thereby disabling any functionality that is only available to the owner."
      },
      "transferOwnership(address)": {
        "details": "Transfers ownership of the contract to a new account (`newOwner`). Can only be called by the current owner."
      }
    },
    "title": "BOP Token Faucet Contract a.k.a \"The gift that keeps on giving!\"",
    "version": 1
  },
  "userdoc": {
    "kind": "user",
    "methods": {
      "drip()": {
        "notice": "This function allows user to get 600 BOP tokens."
      }
    },
    "notice": "This contract is a faucet which allows to get random number of given ERC20 token in between 1 & 6000 or a set amount by deployer We plan to integrate chainlink VRF Raffle.",
    "version": 1
  },
  "storageLayout": {
    "storage": [
      {
        "astId": 1229,
        "contract": "contracts/BopFaucetContract.sol:BopFaucetContract",
        "label": "_owner",
        "offset": 0,
        "slot": "0",
        "type": "t_address"
      },
      {
        "astId": 7268,
        "contract": "contracts/BopFaucetContract.sol:BopFaucetContract",
        "label": "drippers",
        "offset": 0,
        "slot": "1",
        "type": "t_mapping(t_address,t_struct(Dripper)7263_storage)"
      },
      {
        "astId": 7271,
        "contract": "contracts/BopFaucetContract.sol:BopFaucetContract",
        "label": "driptoken",
        "offset": 0,
        "slot": "2",
        "type": "t_contract(ERC20)2171"
      },
      {
        "astId": 7298,
        "contract": "contracts/BopFaucetContract.sol:BopFaucetContract",
        "label": "GotDrippedMax",
        "offset": 0,
        "slot": "3",
        "type": "t_uint256"
      },
      {
        "astId": 7301,
        "contract": "contracts/BopFaucetContract.sol:BopFaucetContract",
        "label": "Limit",
        "offset": 0,
        "slot": "4",
        "type": "t_uint256"
      },
      {
        "astId": 7303,
        "contract": "contracts/BopFaucetContract.sol:BopFaucetContract",
        "label": "Total_Donated",
        "offset": 0,
        "slot": "5",
        "type": "t_uint256"
      },
      {
        "astId": 7305,
        "contract": "contracts/BopFaucetContract.sol:BopFaucetContract",
        "label": "Total_Drip_Pool",
        "offset": 0,
        "slot": "6",
        "type": "t_uint256"
      },
      {
        "astId": 7307,
        "contract": "contracts/BopFaucetContract.sol:BopFaucetContract",
        "label": "Total_Dripped",
        "offset": 0,
        "slot": "7",
        "type": "t_uint256"
      }
    ],
    "types": {
      "t_address": {
        "encoding": "inplace",
        "label": "address",
        "numberOfBytes": "20"
      },
      "t_bool": {
        "encoding": "inplace",
        "label": "bool",
        "numberOfBytes": "1"
      },
      "t_contract(ERC20)2171": {
        "encoding": "inplace",
        "label": "contract ERC20",
        "numberOfBytes": "20"
      },
      "t_mapping(t_address,t_struct(Dripper)7263_storage)": {
        "encoding": "mapping",
        "key": "t_address",
        "label": "mapping(address => struct BopFaucetContract.Dripper)",
        "numberOfBytes": "32",
        "value": "t_struct(Dripper)7263_storage"
      },
      "t_struct(Dripper)7263_storage": {
        "encoding": "inplace",
        "label": "struct BopFaucetContract.Dripper",
        "members": [
          {
            "astId": 7258,
            "contract": "contracts/BopFaucetContract.sol:BopFaucetContract",
            "label": "timeDripped",
            "offset": 0,
            "slot": "0",
            "type": "t_uint256"
          },
          {
            "astId": 7260,
            "contract": "contracts/BopFaucetContract.sol:BopFaucetContract",
            "label": "gotDripped",
            "offset": 0,
            "slot": "1",
            "type": "t_bool"
          },
          {
            "astId": 7262,
            "contract": "contracts/BopFaucetContract.sol:BopFaucetContract",
            "label": "Total_AllTime_Dripped",
            "offset": 0,
            "slot": "2",
            "type": "t_uint256"
          }
        ],
        "numberOfBytes": "96"
      },
      "t_uint256": {
        "encoding": "inplace",
        "label": "uint256",
        "numberOfBytes": "32"
      }
    }
  }
}