{
  "address": "0x23e1AC774ece39C2448D3a33c864E620a4ea2682",
  "abi": [
    {
      "inputs": [],
      "stateMutability": "nonpayable",
      "type": "constructor"
    },
    {
      "anonymous": false,
      "inputs": [
        {
          "indexed": true,
          "internalType": "address",
          "name": "user",
          "type": "address"
        },
        {
          "indexed": false,
          "internalType": "uint256",
          "name": "amount",
          "type": "uint256"
        }
      ],
      "name": "Hoarded",
      "type": "event"
    },
    {
      "anonymous": false,
      "inputs": [
        {
          "indexed": true,
          "internalType": "address",
          "name": "previousOwner",
          "type": "address"
        },
        {
          "indexed": true,
          "internalType": "address",
          "name": "newOwner",
          "type": "address"
        }
      ],
      "name": "OwnershipTransferred",
      "type": "event"
    },
    {
      "anonymous": false,
      "inputs": [
        {
          "indexed": true,
          "internalType": "address",
          "name": "user",
          "type": "address"
        },
        {
          "indexed": false,
          "internalType": "uint256",
          "name": "amount",
          "type": "uint256"
        }
      ],
      "name": "Pooled",
      "type": "event"
    },
    {
      "anonymous": false,
      "inputs": [
        {
          "indexed": true,
          "internalType": "address",
          "name": "user",
          "type": "address"
        }
      ],
      "name": "UnHoarded",
      "type": "event"
    },
    {
      "inputs": [
        {
          "internalType": "address",
          "name": "_owner",
          "type": "address"
        }
      ],
      "name": "CheckBopBalance",
      "outputs": [
        {
          "internalType": "uint256",
          "name": "",
          "type": "uint256"
        }
      ],
      "stateMutability": "view",
      "type": "function"
    },
    {
      "inputs": [
        {
          "internalType": "address",
          "name": "_owner",
          "type": "address"
        }
      ],
      "name": "Check_Bop_Hoarded_Balance",
      "outputs": [
        {
          "internalType": "uint256",
          "name": "",
          "type": "uint256"
        }
      ],
      "stateMutability": "view",
      "type": "function"
    },
    {
      "inputs": [],
      "name": "ClaimReward",
      "outputs": [],
      "stateMutability": "nonpayable",
      "type": "function"
    },
    {
      "inputs": [
        {
          "internalType": "uint256",
          "name": "_amount",
          "type": "uint256"
        }
      ],
      "name": "DonationPool",
      "outputs": [],
      "stateMutability": "nonpayable",
      "type": "function"
    },
    {
      "inputs": [
        {
          "internalType": "address",
          "name": "_hoarder",
          "type": "address"
        }
      ],
      "name": "GetHoardingingTimeInSeconds",
      "outputs": [
        {
          "internalType": "uint256",
          "name": "",
          "type": "uint256"
        }
      ],
      "stateMutability": "view",
      "type": "function"
    },
    {
      "inputs": [
        {
          "internalType": "uint256",
          "name": "_amount",
          "type": "uint256"
        }
      ],
      "name": "Hoard",
      "outputs": [],
      "stateMutability": "nonpayable",
      "type": "function"
    },
    {
      "inputs": [
        {
          "internalType": "uint256",
          "name": "_amount",
          "type": "uint256"
        }
      ],
      "name": "IncreaseHoard",
      "outputs": [],
      "stateMutability": "nonpayable",
      "type": "function"
    },
    {
      "inputs": [],
      "name": "Total_Hoarders",
      "outputs": [
        {
          "internalType": "uint256",
          "name": "",
          "type": "uint256"
        }
      ],
      "stateMutability": "view",
      "type": "function"
    },
    {
      "inputs": [],
      "name": "Total_Reward_Pool",
      "outputs": [
        {
          "internalType": "uint256",
          "name": "",
          "type": "uint256"
        }
      ],
      "stateMutability": "view",
      "type": "function"
    },
    {
      "inputs": [],
      "name": "Unhoard",
      "outputs": [],
      "stateMutability": "nonpayable",
      "type": "function"
    },
    {
      "inputs": [
        {
          "internalType": "address",
          "name": "_hoarder",
          "type": "address"
        }
      ],
      "name": "calculateReward",
      "outputs": [
        {
          "internalType": "uint256",
          "name": "",
          "type": "uint256"
        }
      ],
      "stateMutability": "view",
      "type": "function"
    },
    {
      "inputs": [
        {
          "internalType": "address",
          "name": "",
          "type": "address"
        }
      ],
      "name": "hoarders",
      "outputs": [
        {
          "internalType": "uint256",
          "name": "hoarded",
          "type": "uint256"
        },
        {
          "internalType": "uint256",
          "name": "timeHoarded",
          "type": "uint256"
        },
        {
          "internalType": "bool",
          "name": "isHoarding",
          "type": "bool"
        },
        {
          "internalType": "uint256",
          "name": "Total_AllTime_Hoarded",
          "type": "uint256"
        },
        {
          "internalType": "uint256",
          "name": "reward",
          "type": "uint256"
        },
        {
          "internalType": "uint256",
          "name": "Total_AllTime_Reward",
          "type": "uint256"
        }
      ],
      "stateMutability": "view",
      "type": "function"
    },
    {
      "inputs": [],
      "name": "hoardingToken",
      "outputs": [
        {
          "internalType": "contract ERC20",
          "name": "",
          "type": "address"
        }
      ],
      "stateMutability": "view",
      "type": "function"
    },
    {
      "inputs": [],
      "name": "owner",
      "outputs": [
        {
          "internalType": "address",
          "name": "",
          "type": "address"
        }
      ],
      "stateMutability": "view",
      "type": "function"
    },
    {
      "inputs": [],
      "name": "renounceOwnership",
      "outputs": [],
      "stateMutability": "nonpayable",
      "type": "function"
    },
    {
      "inputs": [],
      "name": "totalHoarded",
      "outputs": [
        {
          "internalType": "uint256",
          "name": "",
          "type": "uint256"
        }
      ],
      "stateMutability": "view",
      "type": "function"
    },
    {
      "inputs": [
        {
          "internalType": "address",
          "name": "newOwner",
          "type": "address"
        }
      ],
      "name": "transferOwnership",
      "outputs": [],
      "stateMutability": "nonpayable",
      "type": "function"
    }
  ],
  "transactionHash": "0xa93500242e8b8a447a852a4f84ddc18f85166e4f8a3e19db11cbad0b53a2b56c",
  "args": [],
  "numDeployments": 1,
  "solcInputHash": "ab87f9cd9f293fb480768475a3c7587b",
  "bytecode": "0x60806040526000600455600060055534801561001a57600080fd5b5061002433610053565b60018055600780546001600160a01b031916732c3afc7e571caf77c52505c46c33bb493bf482641790556100a3565b600080546001600160a01b038381166001600160a01b0319831681178455604051919092169283917f8be0079c531659141344cd1fd0a4f28419497f9722a3daafe3b4186f6b6457e09190a35050565b611645806100b26000396000f3fe608060405234801561001057600080fd5b506004361061011a5760003560e01c806379372f9a116100b2578063a886aafe11610081578063cebc819f11610066578063cebc819f146102b7578063d82e3962146102d7578063f2fde38b146102ea57600080fd5b8063a886aafe1461029b578063a98cb7f9146102a457600080fd5b806379372f9a146101c55780638da5cb5b146101cd5780639ce521b31461020c578063a06d65ad1461028857600080fd5b80633e0dc721116100ee5780633e0dc72114610199578063559b4ca3146101a15780635a4d2eaa146101aa578063715018a6146101bd57600080fd5b8062f5bf241461011f5780630afa1dd314610145578063355f60d21461014e5780633609157c14610163575b600080fd5b61013261012d366004611500565b6102fd565b6040519081526020015b60405180910390f35b61013260055481565b61016161015c36600461153d565b610398565b005b610132610171366004611500565b73ffffffffffffffffffffffffffffffffffffffff1660009081526002602052604090205490565b610161610704565b61013260045481565b6101616101b836600461153d565b610be8565b610161610dfb565b610161610e0f565b60005473ffffffffffffffffffffffffffffffffffffffff165b60405173ffffffffffffffffffffffffffffffffffffffff909116815260200161013c565b61025561021a366004611500565b600260208190526000918252604090912080546001820154928201546003830154600484015460059094015492949360ff9092169290919086565b604080519687526020870195909552921515938501939093526060840152608083019190915260a082015260c00161013c565b61016161029636600461153d565b610f8c565b61013260065481565b6101326102b2366004611500565b611213565b6007546101e79073ffffffffffffffffffffffffffffffffffffffff1681565b6101326102e5366004611500565b611246565b6101616102f8366004611500565b6112e3565b6007546040517f70a0823100000000000000000000000000000000000000000000000000000000815273ffffffffffffffffffffffffffffffffffffffff838116600483015260009216906370a0823190602401602060405180830381865afa15801561036e573d6000803e3d6000fd5b505050506040513d601f19601f820116820180604052508101906103929190611556565b92915050565b6103a0611397565b336000908152600260208190526040909120015460ff1615610423576040517f08c379a000000000000000000000000000000000000000000000000000000000815260206004820152601560248201527f486f617264657220616c7265616479206578697374000000000000000000000060448201526064015b60405180910390fd5b6007546040517f70a0823100000000000000000000000000000000000000000000000000000000815233600482015260009173ffffffffffffffffffffffffffffffffffffffff16906370a0823190602401602060405180830381865afa158015610492573d6000803e3d6000fd5b505050506040513d601f19601f820116820180604052508101906104b69190611556565b101561056a576040517f08c379a000000000000000000000000000000000000000000000000000000000815260206004820152604660248201527f596f752063616e6e6f7420686f617264206d6f726520746f6b656e732074686160448201527f6e20796f7520686f6c6420616e6420686f617264696e67206973204e6f6e2d5260648201527f65456e7472790000000000000000000000000000000000000000000000000000608482015260a40161041a565b6007546040517f23b872dd0000000000000000000000000000000000000000000000000000000081523360048201523060248201526044810183905273ffffffffffffffffffffffffffffffffffffffff909116906323b872dd906064016020604051808303816000875af11580156105e7573d6000803e3d6000fd5b505050506040513d601f19601f8201168201806040525081019061060b919061156f565b50336000908152600260205260408120805483929061062b9084906115c0565b909155505033600090815260026020819052604082204260018083019190915591810180547fffffffffffffffffffffffffffffffffffffffffffffffffffffffffffffff0016909217909155600301805483929061068b9084906115c0565b9250508190555080600460008282546106a491906115c0565b925050819055506001600560008282546106be91906115c0565b909155505060405181815233907f8719c6d42263b6c9964f8fd07267a1296b19fd97340b880de23e57cab3f290a99060200160405180910390a261070160018055565b50565b336000908152600260208190526040909120015460ff1615156001146107ac576040517f08c379a000000000000000000000000000000000000000000000000000000000815260206004820152602a60248201527f596f752063616e6e6f7420756e686f61726420696620796f7520617265206e6f60448201527f7420686f617264696e6700000000000000000000000000000000000000000000606482015260840161041a565b336000908152600260205260409020600101546107cb906101686115c0565b421015610880576040517f08c379a000000000000000000000000000000000000000000000000000000000815260206004820152605660248201527f596f752063616e6e6f7420756e686f61726420696e207468652066697273742060448201527f36206d696e75746573206f6620686f617264696e67696e6720666f6c6c6f776960648201527f6e67207468652070726f6a6563742036206d6f64656c00000000000000000000608482015260a40161041a565b60075433600081815260026020526040908190205490517fa9059cbb0000000000000000000000000000000000000000000000000000000081526004810192909252602482015273ffffffffffffffffffffffffffffffffffffffff9091169063a9059cbb906044016020604051808303816000875af1158015610908573d6000803e3d6000fd5b505050506040513d601f19601f8201168201806040525081019061092c919061156f565b503360009081526002602052604081205460048054919290916109509084906115d3565b909155506000905061096133611246565b6007546040517f70a08231000000000000000000000000000000000000000000000000000000008152306004820152919250829173ffffffffffffffffffffffffffffffffffffffff909116906370a0823190602401602060405180830381865afa1580156109d4573d6000803e3d6000fd5b505050506040513d601f19601f820116820180604052508101906109f89190611556565b1015610a86576040517f08c379a000000000000000000000000000000000000000000000000000000000815260206004820152603f60248201527f54686520636f6e747261637420646f6573206e6f74206861766520656e6f756760448201527f6820746f6b656e7320746f206769766520796f75207468652072657761726400606482015260840161041a565b6007546040517fa9059cbb0000000000000000000000000000000000000000000000000000000081523360048201526024810183905273ffffffffffffffffffffffffffffffffffffffff9091169063a9059cbb906044016020604051808303816000875af1158015610afd573d6000803e3d6000fd5b505050506040513d601f19601f82011682018060405250810190610b21919061156f565b503360009081526002602052604081206005018054839290610b449084906115c0565b90915550503360009081526002602052604081206004018054839290610b6b9084906115c0565b909155505033600090815260026020819052604082208281556001808201849055910180547fffffffffffffffffffffffffffffffffffffffffffffffffffffffffffffff001690556005805491929091610bc79084906115d3565b925050819055508060066000828254610be091906115d3565b909155505050565b6007546040517f70a0823100000000000000000000000000000000000000000000000000000000815233600482015260009173ffffffffffffffffffffffffffffffffffffffff16906370a0823190602401602060405180830381865afa158015610c57573d6000803e3d6000fd5b505050506040513d601f19601f82011682018060405250810190610c7b9190611556565b1015610d09576040517f08c379a000000000000000000000000000000000000000000000000000000000815260206004820152602960248201527f596f752063616e6e6f7420706f6f6c206d6f726520746f6b656e73207468616e60448201527f20796f7520686f6c640000000000000000000000000000000000000000000000606482015260840161041a565b6007546040517f23b872dd0000000000000000000000000000000000000000000000000000000081523360048201523060248201526044810183905273ffffffffffffffffffffffffffffffffffffffff909116906323b872dd906064016020604051808303816000875af1158015610d86573d6000803e3d6000fd5b505050506040513d601f19601f82011682018060405250810190610daa919061156f565b508060066000828254610dbd91906115c0565b909155505060405181815233907f423eb3fc7f00914fa251f391851045c36a87052e7afb63e89ad6991b56a6c617906020015b60405180910390a250565b610e0361140a565b610e0d600061148b565b565b336000908152600260208190526040909120015460ff161515600114610eb7576040517f08c379a000000000000000000000000000000000000000000000000000000000815260206004820152602a60248201527f596f752063616e6e6f7420756e686f61726420696620796f7520617265206e6f60448201527f7420686f617264696e6700000000000000000000000000000000000000000000606482015260840161041a565b33600090815260026020526040902060010154610ed7906207e9006115c0565b421015610880576040517f08c379a000000000000000000000000000000000000000000000000000000000815260206004820152604e60248201527f596f752063616e6e6f7420436c61696d20696e2074686520666972737420362060448201527f64617973206f6620686f617264696e6720666f6c6c6f77696e6720746865207060648201527f726f6a6563742036206d6f64656c000000000000000000000000000000000000608482015260a40161041a565b6007546040517f70a0823100000000000000000000000000000000000000000000000000000000815233600482015260009173ffffffffffffffffffffffffffffffffffffffff16906370a0823190602401602060405180830381865afa158015610ffb573d6000803e3d6000fd5b505050506040513d601f19601f8201168201806040525081019061101f9190611556565b10156110ad576040517f08c379a000000000000000000000000000000000000000000000000000000000815260206004820152602a60248201527f596f752063616e6e6f7420686f617264206d6f726520746f6b656e732074686160448201527f6e20796f7520686f6c6400000000000000000000000000000000000000000000606482015260840161041a565b6007546040517f23b872dd0000000000000000000000000000000000000000000000000000000081523360048201523060248201526044810183905273ffffffffffffffffffffffffffffffffffffffff909116906323b872dd906064016020604051808303816000875af115801561112a573d6000803e3d6000fd5b505050506040513d601f19601f8201168201806040525081019061114e919061156f565b50336000908152600260205260408120805483929061116e9084906115c0565b9091555050336000908152600260208190526040822090810180547fffffffffffffffffffffffffffffffffffffffffffffffffffffffffffffff0016600117905560030180548392906111c39084906115c0565b9250508190555080600460008282546111dc91906115c0565b909155505060405181815233907f8719c6d42263b6c9964f8fd07267a1296b19fd97340b880de23e57cab3f290a990602001610df0565b73ffffffffffffffffffffffffffffffffffffffff811660009081526002602052604081206001015461039290426115d3565b73ffffffffffffffffffffffffffffffffffffffff8116600090815260026020526040812060010154819061127b90426115d3565b73ffffffffffffffffffffffffffffffffffffffff8416600090815260026020526040812054919250906064906112b39060066115e6565b6112bd91906115fd565b905060006301e133806112d084846115e6565b6112da91906115fd565b95945050505050565b6112eb61140a565b73ffffffffffffffffffffffffffffffffffffffff811661138e576040517f08c379a000000000000000000000000000000000000000000000000000000000815260206004820152602660248201527f4f776e61626c653a206e6577206f776e657220697320746865207a65726f206160448201527f6464726573730000000000000000000000000000000000000000000000000000606482015260840161041a565b6107018161148b565b600260015403611403576040517f08c379a000000000000000000000000000000000000000000000000000000000815260206004820152601f60248201527f5265656e7472616e637947756172643a207265656e7472616e742063616c6c00604482015260640161041a565b6002600155565b60005473ffffffffffffffffffffffffffffffffffffffff163314610e0d576040517f08c379a000000000000000000000000000000000000000000000000000000000815260206004820181905260248201527f4f776e61626c653a2063616c6c6572206973206e6f7420746865206f776e6572604482015260640161041a565b6000805473ffffffffffffffffffffffffffffffffffffffff8381167fffffffffffffffffffffffff0000000000000000000000000000000000000000831681178455604051919092169283917f8be0079c531659141344cd1fd0a4f28419497f9722a3daafe3b4186f6b6457e09190a35050565b60006020828403121561151257600080fd5b813573ffffffffffffffffffffffffffffffffffffffff8116811461153657600080fd5b9392505050565b60006020828403121561154f57600080fd5b5035919050565b60006020828403121561156857600080fd5b5051919050565b60006020828403121561158157600080fd5b8151801515811461153657600080fd5b7f4e487b7100000000000000000000000000000000000000000000000000000000600052601160045260246000fd5b8082018082111561039257610392611591565b8181038181111561039257610392611591565b808202811582820484141761039257610392611591565b600082611633577f4e487b7100000000000000000000000000000000000000000000000000000000600052601260045260246000fd5b50049056fea164736f6c6343000814000a",
  "devdoc": {
    "kind": "dev",
    "methods": {
      "owner()": {
        "details": "Returns the address of the current owner."
      },
      "renounceOwnership()": {
        "details": "Leaves the contract without owner. It will not be possible to call `onlyOwner` functions. Can only be called by the current owner. NOTE: Renouncing ownership will leave the contract without an owner, thereby disabling any functionality that is only available to the owner."
      },
      "transferOwnership(address)": {
        "details": "Transfers ownership of the contract to a new account (`newOwner`). Can only be called by the current owner."
      }
    },
    "version": 1
  },
  "userdoc": {
    "kind": "user",
    "methods": {},
    "version": 1
  },
  "storageLayout": {
    "storage": [
      {
        "astId": 7,
        "contract": "contracts/BopHoardingContract.sol:BopHoardingContract",
        "label": "_owner",
        "offset": 0,
        "slot": "0",
        "type": "t_address"
      },
      {
        "astId": 123,
        "contract": "contracts/BopHoardingContract.sol:BopHoardingContract",
        "label": "_status",
        "offset": 0,
        "slot": "1",
        "type": "t_uint256"
      },
      {
        "astId": 916,
        "contract": "contracts/BopHoardingContract.sol:BopHoardingContract",
        "label": "hoarders",
        "offset": 0,
        "slot": "2",
        "type": "t_mapping(t_address,t_struct(Hoarder)911_storage)"
      },
      {
        "astId": 918,
        "contract": "contracts/BopHoardingContract.sol:BopHoardingContract",
        "label": "timeHoarded",
        "offset": 0,
        "slot": "3",
        "type": "t_uint256"
      },
      {
        "astId": 921,
        "contract": "contracts/BopHoardingContract.sol:BopHoardingContract",
        "label": "totalHoarded",
        "offset": 0,
        "slot": "4",
        "type": "t_uint256"
      },
      {
        "astId": 924,
        "contract": "contracts/BopHoardingContract.sol:BopHoardingContract",
        "label": "Total_Hoarders",
        "offset": 0,
        "slot": "5",
        "type": "t_uint256"
      },
      {
        "astId": 926,
        "contract": "contracts/BopHoardingContract.sol:BopHoardingContract",
        "label": "Total_Reward_Pool",
        "offset": 0,
        "slot": "6",
        "type": "t_uint256"
      },
      {
        "astId": 929,
        "contract": "contracts/BopHoardingContract.sol:BopHoardingContract",
        "label": "hoardingToken",
        "offset": 0,
        "slot": "7",
        "type": "t_contract(ERC20)764"
      }
    ],
    "types": {
      "t_address": {
        "encoding": "inplace",
        "label": "address",
        "numberOfBytes": "20"
      },
      "t_bool": {
        "encoding": "inplace",
        "label": "bool",
        "numberOfBytes": "1"
      },
      "t_contract(ERC20)764": {
        "encoding": "inplace",
        "label": "contract ERC20",
        "numberOfBytes": "20"
      },
      "t_mapping(t_address,t_struct(Hoarder)911_storage)": {
        "encoding": "mapping",
        "key": "t_address",
        "label": "mapping(address => struct BopHoardingContract.Hoarder)",
        "numberOfBytes": "32",
        "value": "t_struct(Hoarder)911_storage"
      },
      "t_struct(Hoarder)911_storage": {
        "encoding": "inplace",
        "label": "struct BopHoardingContract.Hoarder",
        "members": [
          {
            "astId": 900,
            "contract": "contracts/BopHoardingContract.sol:BopHoardingContract",
            "label": "hoarded",
            "offset": 0,
            "slot": "0",
            "type": "t_uint256"
          },
          {
            "astId": 902,
            "contract": "contracts/BopHoardingContract.sol:BopHoardingContract",
            "label": "timeHoarded",
            "offset": 0,
            "slot": "1",
            "type": "t_uint256"
          },
          {
            "astId": 904,
            "contract": "contracts/BopHoardingContract.sol:BopHoardingContract",
            "label": "isHoarding",
            "offset": 0,
            "slot": "2",
            "type": "t_bool"
          },
          {
            "astId": 906,
            "contract": "contracts/BopHoardingContract.sol:BopHoardingContract",
            "label": "Total_AllTime_Hoarded",
            "offset": 0,
            "slot": "3",
            "type": "t_uint256"
          },
          {
            "astId": 908,
            "contract": "contracts/BopHoardingContract.sol:BopHoardingContract",
            "label": "reward",
            "offset": 0,
            "slot": "4",
            "type": "t_uint256"
          },
          {
            "astId": 910,
            "contract": "contracts/BopHoardingContract.sol:BopHoardingContract",
            "label": "Total_AllTime_Reward",
            "offset": 0,
            "slot": "5",
            "type": "t_uint256"
          }
        ],
        "numberOfBytes": "192"
      },
      "t_uint256": {
        "encoding": "inplace",
        "label": "uint256",
        "numberOfBytes": "32"
      }
    }
  }
}