{
  "address": "0x64B5bA45B5F02c72512C336a12284Dd8f58ef1d8",
  "abi": [
    {
      "inputs": [
        {
          "internalType": "address",
          "name": "_owner",
          "type": "address"
        }
      ],
      "stateMutability": "nonpayable",
      "type": "constructor"
    },
    {
      "inputs": [],
      "name": "SWAP_FEE",
      "outputs": [
        {
          "internalType": "uint256",
          "name": "",
          "type": "uint256"
        }
      ],
      "stateMutability": "view",
      "type": "function"
    },
    {
      "inputs": [],
      "name": "Total_AllTime_Minted",
      "outputs": [
        {
          "internalType": "uint256",
          "name": "",
          "type": "uint256"
        }
      ],
      "stateMutability": "view",
      "type": "function"
    },
    {
      "inputs": [],
      "name": "Total_Dai_Swap_Transactions",
      "outputs": [
        {
          "internalType": "uint256",
          "name": "",
          "type": "uint256"
        }
      ],
      "stateMutability": "view",
      "type": "function"
    },
    {
      "inputs": [],
      "name": "Total_Mhgd_Swap_Transactions",
      "outputs": [
        {
          "internalType": "uint256",
          "name": "",
          "type": "uint256"
        }
      ],
      "stateMutability": "view",
      "type": "function"
    },
    {
      "inputs": [],
      "name": "Total_Mint_Transactions",
      "outputs": [
        {
          "internalType": "uint256",
          "name": "",
          "type": "uint256"
        }
      ],
      "stateMutability": "view",
      "type": "function"
    },
    {
      "inputs": [],
      "name": "daiReserve",
      "outputs": [
        {
          "internalType": "uint256",
          "name": "",
          "type": "uint256"
        }
      ],
      "stateMutability": "view",
      "type": "function"
    },
    {
      "inputs": [],
      "name": "daiToken",
      "outputs": [
        {
          "internalType": "contract IERC20",
          "name": "",
          "type": "address"
        }
      ],
      "stateMutability": "view",
      "type": "function"
    },
    {
      "inputs": [],
      "name": "feesCollected",
      "outputs": [
        {
          "internalType": "uint256",
          "name": "",
          "type": "uint256"
        }
      ],
      "stateMutability": "view",
      "type": "function"
    },
    {
      "inputs": [],
      "name": "mhgdReserve",
      "outputs": [
        {
          "internalType": "uint256",
          "name": "",
          "type": "uint256"
        }
      ],
      "stateMutability": "view",
      "type": "function"
    },
    {
      "inputs": [],
      "name": "mhgdToken",
      "outputs": [
        {
          "internalType": "contract IMhgdToken",
          "name": "",
          "type": "address"
        }
      ],
      "stateMutability": "view",
      "type": "function"
    },
    {
      "inputs": [
        {
          "internalType": "uint256",
          "name": "daiAmount",
          "type": "uint256"
        }
      ],
      "name": "mint",
      "outputs": [],
      "stateMutability": "nonpayable",
      "type": "function"
    },
    {
      "inputs": [
        {
          "internalType": "address",
          "name": "",
          "type": "address"
        }
      ],
      "name": "minters",
      "outputs": [
        {
          "internalType": "uint256",
          "name": "minted",
          "type": "uint256"
        },
        {
          "internalType": "uint256",
          "name": "mintedAtBlock",
          "type": "uint256"
        },
        {
          "internalType": "bool",
          "name": "hasMintedBefore",
          "type": "bool"
        },
        {
          "internalType": "uint256",
          "name": "minter_AllTime_Minted",
          "type": "uint256"
        }
      ],
      "stateMutability": "view",
      "type": "function"
    },
    {
      "inputs": [],
      "name": "owner",
      "outputs": [
        {
          "internalType": "address",
          "name": "",
          "type": "address"
        }
      ],
      "stateMutability": "view",
      "type": "function"
    },
    {
      "inputs": [
        {
          "internalType": "uint256",
          "name": "daiAmount",
          "type": "uint256"
        }
      ],
      "name": "swapDai",
      "outputs": [],
      "stateMutability": "nonpayable",
      "type": "function"
    },
    {
      "inputs": [
        {
          "internalType": "uint256",
          "name": "mhgdAmount",
          "type": "uint256"
        }
      ],
      "name": "swapMhgd",
      "outputs": [],
      "stateMutability": "nonpayable",
      "type": "function"
    }
  ],
  "transactionHash": "0x878ada8b29bc0fc5101b71b81806751fc8ff36f3f6c03d1a105a2ba8a410f3e2",
  "args": [
    "0xEf353eC37ed86CF28cfb29925748B202B51110C6"
  ],
  "numDeployments": 1,
  "solcInputHash": "ab87f9cd9f293fb480768475a3c7587b",
  "bytecode": "0x60a060405260006001556000600255600060035534801561001f57600080fd5b50604051610faf380380610faf83398101604081905261003e9161009c565b6001600055600680546001600160a01b031990811673520ff243919e21590785fe48f5d86106d79166ee1790915560078054909116739460b9fed18bd5af7b99d88aae7723ca331a7d141790556001600160a01b03166080526100cc565b6000602082840312156100ae57600080fd5b81516001600160a01b03811681146100c557600080fd5b9392505050565b608051610ec86100e760003960006101470152610ec86000f3fe608060405234801561001057600080fd5b50600436106100f55760003560e01c8063be22f54611610097578063ee1f99a211610066578063ee1f99a2146101fc578063f071db5a14610205578063f46eccc41461020e578063f83056d21461026f57600080fd5b8063be22f546146101aa578063c2d65935146101ca578063e2771ec8146101ea578063e88493be146101f357600080fd5b806388bbf88b116100d357806388bbf88b1461012d5780638da5cb5b14610142578063a0712d681461018e578063bdf4a5d8146101a157600080fd5b80636eaa4c52146100fa578063768aebde1461011657806377b86de414610124575b600080fd5b61010360095481565b6040519081526020015b60405180910390f35b610103662386f26fc1000081565b61010360045481565b61014061013b366004610dcf565b610282565b005b6101697f000000000000000000000000000000000000000000000000000000000000000081565b60405173ffffffffffffffffffffffffffffffffffffffff909116815260200161010d565b61014061019c366004610dcf565b61065d565b61010360025481565b6006546101699073ffffffffffffffffffffffffffffffffffffffff1681565b6007546101699073ffffffffffffffffffffffffffffffffffffffff1681565b61010360085481565b61010360015481565b61010360035481565b610103600a5481565b61024961021c366004610de8565b60056020526000908152604090208054600182015460028301546003909301549192909160ff9091169084565b60408051948552602085019390935290151591830191909152606082015260800161010d565b61014061027d366004610dcf565b6109e0565b61028a610d5c565b61029b662386f26fc1000082610e54565b6006546040517f70a0823100000000000000000000000000000000000000000000000000000000815230600482015273ffffffffffffffffffffffffffffffffffffffff909116906370a0823190602401602060405180830381865afa158015610309573d6000803e3d6000fd5b505050506040513d601f19601f8201168201806040525081019061032d9190610e6d565b101561039a576040517f08c379a000000000000000000000000000000000000000000000000000000000815260206004820152601960248201527f4e6f7420656e6f7567682044414920696e20726573657276650000000000000060448201526064015b60405180910390fd5b6007546040517f23b872dd0000000000000000000000000000000000000000000000000000000081523360048201523060248201526044810183905273ffffffffffffffffffffffffffffffffffffffff909116906323b872dd906064016020604051808303816000875af1158015610417573d6000803e3d6000fd5b505050506040513d601f19601f8201168201806040525081019061043b9190610e86565b6104a1576040517f08c379a000000000000000000000000000000000000000000000000000000000815260206004820152601760248201527f5472616e73666572206f66204d484744206661696c65640000000000000000006044820152606401610391565b60065473ffffffffffffffffffffffffffffffffffffffff1663a9059cbb336104d1662386f26fc1000085610e54565b6040517fffffffff0000000000000000000000000000000000000000000000000000000060e085901b16815273ffffffffffffffffffffffffffffffffffffffff909216600483015260248201526044016020604051808303816000875af1158015610541573d6000803e3d6000fd5b505050506040513d601f19601f820116820180604052508101906105659190610e86565b6105cb576040517f08c379a000000000000000000000000000000000000000000000000000000000815260206004820152601660248201527f5472616e73666572206f6620444149206661696c6564000000000000000000006044820152606401610391565b80600860008282546105dd9190610e54565b9250508190555080600960008282546105f69190610ea8565b92505081905550662386f26fc10000600a60008282546106169190610ea8565b92505081905550662386f26fc10000600860008282546106369190610ea8565b925050819055506001600260008282546106509190610ea8565b9091555050600160005550565b610665610d5c565b6006546040517f70a0823100000000000000000000000000000000000000000000000000000000815233600482015260009173ffffffffffffffffffffffffffffffffffffffff16906370a0823190602401602060405180830381865afa1580156106d4573d6000803e3d6000fd5b505050506040513d601f19601f820116820180604052508101906106f89190610e6d565b1015610786576040517f08c379a000000000000000000000000000000000000000000000000000000000815260206004820152602c60248201527f596f75206e656564206d6f72652044616920746f204d696e74204d484744205460448201527f6f6b656e7320534f5252592100000000000000000000000000000000000000006064820152608401610391565b6006546040517f23b872dd0000000000000000000000000000000000000000000000000000000081523360048201523060248201526044810183905273ffffffffffffffffffffffffffffffffffffffff909116906323b872dd906064016020604051808303816000875af1158015610803573d6000803e3d6000fd5b505050506040513d601f19601f820116820180604052508101906108279190610e86565b61088d576040517f08c379a000000000000000000000000000000000000000000000000000000000815260206004820152601660248201527f5472616e73666572206f6620444149206661696c6564000000000000000000006044820152606401610391565b6007546040517f40c10f190000000000000000000000000000000000000000000000000000000081523360048201526024810183905273ffffffffffffffffffffffffffffffffffffffff909116906340c10f1990604401600060405180830381600087803b1580156108ff57600080fd5b505af1158015610913573d6000803e3d6000fd5b50503360009081526005602052604081208054859450909250610937908490610ea8565b9091555050336000908152600560205260408120426001808301919091556002820180547fffffffffffffffffffffffffffffffffffffffffffffffffffffffffffffff001690911790556003018054839290610995908490610ea8565b9250508190555080600460008282546109ae9190610ea8565b9250508190555060018060008282546109c79190610ea8565b9250508190555080600860008282546106509190610ea8565b6109e8610d5c565b6109f9662386f26fc1000082610ea8565b6006546040517f70a0823100000000000000000000000000000000000000000000000000000000815233600482015273ffffffffffffffffffffffffffffffffffffffff909116906370a0823190602401602060405180830381865afa158015610a67573d6000803e3d6000fd5b505050506040513d601f19601f82011682018060405250810190610a8b9190610e6d565b1015610b19576040517f08c379a000000000000000000000000000000000000000000000000000000000815260206004820152603060248201527f596f75206e656564206d6f72652044616920746f205377617020666f72204d4860448201527f474420546f6b656e7320534f52525921000000000000000000000000000000006064820152608401610391565b60065473ffffffffffffffffffffffffffffffffffffffff166323b872dd3330610b4a662386f26fc1000086610ea8565b6040517fffffffff0000000000000000000000000000000000000000000000000000000060e086901b16815273ffffffffffffffffffffffffffffffffffffffff938416600482015292909116602483015260448201526064016020604051808303816000875af1158015610bc3573d6000803e3d6000fd5b505050506040513d601f19601f82011682018060405250810190610be79190610e86565b610c4d576040517f08c379a000000000000000000000000000000000000000000000000000000000815260206004820152601660248201527f5472616e73666572206f6620444149206661696c6564000000000000000000006044820152606401610391565b6007546040517fa9059cbb0000000000000000000000000000000000000000000000000000000081523360048201526024810183905273ffffffffffffffffffffffffffffffffffffffff9091169063a9059cbb90604401600060405180830381600087803b158015610cbf57600080fd5b505af1158015610cd3573d6000803e3d6000fd5b505050508060086000828254610ce99190610ea8565b92505081905550662386f26fc1000060086000828254610d099190610ea8565b92505081905550662386f26fc10000600a6000828254610d299190610ea8565b925050819055508060096000828254610d429190610e54565b925050819055506001600360008282546106509190610ea8565b600260005403610dc8576040517f08c379a000000000000000000000000000000000000000000000000000000000815260206004820152601f60248201527f5265656e7472616e637947756172643a207265656e7472616e742063616c6c006044820152606401610391565b6002600055565b600060208284031215610de157600080fd5b5035919050565b600060208284031215610dfa57600080fd5b813573ffffffffffffffffffffffffffffffffffffffff81168114610e1e57600080fd5b9392505050565b7f4e487b7100000000000000000000000000000000000000000000000000000000600052601160045260246000fd5b81810381811115610e6757610e67610e25565b92915050565b600060208284031215610e7f57600080fd5b5051919050565b600060208284031215610e9857600080fd5b81518015158114610e1e57600080fd5b80820180821115610e6757610e67610e2556fea164736f6c6343000814000a",
  "devdoc": {
    "kind": "dev",
    "methods": {
      "mint(uint256)": {
        "details": "Mints an equivalent amount of MhgdToken for the transferred DAI"
      },
      "swapDai(uint256)": {
        "details": "Swaps the DAI to MHGD plus the swap fee 0.01 DAI."
      },
      "swapMhgd(uint256)": {
        "details": "Swaps the MhgdToken to DAI less the swap fee."
      }
    },
    "version": 1
  },
  "userdoc": {
    "kind": "user",
    "methods": {},
    "version": 1
  },
  "storageLayout": {
    "storage": [
      {
        "astId": 123,
        "contract": "contracts/MhgdDaiMint.sol:MhgdDaiMint",
        "label": "_status",
        "offset": 0,
        "slot": "0",
        "type": "t_uint256"
      },
      {
        "astId": 1524,
        "contract": "contracts/MhgdDaiMint.sol:MhgdDaiMint",
        "label": "Total_Mint_Transactions",
        "offset": 0,
        "slot": "1",
        "type": "t_uint256"
      },
      {
        "astId": 1527,
        "contract": "contracts/MhgdDaiMint.sol:MhgdDaiMint",
        "label": "Total_Mhgd_Swap_Transactions",
        "offset": 0,
        "slot": "2",
        "type": "t_uint256"
      },
      {
        "astId": 1530,
        "contract": "contracts/MhgdDaiMint.sol:MhgdDaiMint",
        "label": "Total_Dai_Swap_Transactions",
        "offset": 0,
        "slot": "3",
        "type": "t_uint256"
      },
      {
        "astId": 1532,
        "contract": "contracts/MhgdDaiMint.sol:MhgdDaiMint",
        "label": "Total_AllTime_Minted",
        "offset": 0,
        "slot": "4",
        "type": "t_uint256"
      },
      {
        "astId": 1537,
        "contract": "contracts/MhgdDaiMint.sol:MhgdDaiMint",
        "label": "minters",
        "offset": 0,
        "slot": "5",
        "type": "t_mapping(t_address,t_struct(Minter)1518_storage)"
      },
      {
        "astId": 1540,
        "contract": "contracts/MhgdDaiMint.sol:MhgdDaiMint",
        "label": "daiToken",
        "offset": 0,
        "slot": "6",
        "type": "t_contract(IERC20)842"
      },
      {
        "astId": 1543,
        "contract": "contracts/MhgdDaiMint.sol:MhgdDaiMint",
        "label": "mhgdToken",
        "offset": 0,
        "slot": "7",
        "type": "t_contract(IMhgdToken)1505"
      },
      {
        "astId": 1545,
        "contract": "contracts/MhgdDaiMint.sol:MhgdDaiMint",
        "label": "daiReserve",
        "offset": 0,
        "slot": "8",
        "type": "t_uint256"
      },
      {
        "astId": 1547,
        "contract": "contracts/MhgdDaiMint.sol:MhgdDaiMint",
        "label": "mhgdReserve",
        "offset": 0,
        "slot": "9",
        "type": "t_uint256"
      },
      {
        "astId": 1549,
        "contract": "contracts/MhgdDaiMint.sol:MhgdDaiMint",
        "label": "feesCollected",
        "offset": 0,
        "slot": "10",
        "type": "t_uint256"
      }
    ],
    "types": {
      "t_address": {
        "encoding": "inplace",
        "label": "address",
        "numberOfBytes": "20"
      },
      "t_bool": {
        "encoding": "inplace",
        "label": "bool",
        "numberOfBytes": "1"
      },
      "t_contract(IERC20)842": {
        "encoding": "inplace",
        "label": "contract IERC20",
        "numberOfBytes": "20"
      },
      "t_contract(IMhgdToken)1505": {
        "encoding": "inplace",
        "label": "contract IMhgdToken",
        "numberOfBytes": "20"
      },
      "t_mapping(t_address,t_struct(Minter)1518_storage)": {
        "encoding": "mapping",
        "key": "t_address",
        "label": "mapping(address => struct MhgdDaiMint.Minter)",
        "numberOfBytes": "32",
        "value": "t_struct(Minter)1518_storage"
      },
      "t_struct(Minter)1518_storage": {
        "encoding": "inplace",
        "label": "struct MhgdDaiMint.Minter",
        "members": [
          {
            "astId": 1511,
            "contract": "contracts/MhgdDaiMint.sol:MhgdDaiMint",
            "label": "minted",
            "offset": 0,
            "slot": "0",
            "type": "t_uint256"
          },
          {
            "astId": 1513,
            "contract": "contracts/MhgdDaiMint.sol:MhgdDaiMint",
            "label": "mintedAtBlock",
            "offset": 0,
            "slot": "1",
            "type": "t_uint256"
          },
          {
            "astId": 1515,
            "contract": "contracts/MhgdDaiMint.sol:MhgdDaiMint",
            "label": "hasMintedBefore",
            "offset": 0,
            "slot": "2",
            "type": "t_bool"
          },
          {
            "astId": 1517,
            "contract": "contracts/MhgdDaiMint.sol:MhgdDaiMint",
            "label": "minter_AllTime_Minted",
            "offset": 0,
            "slot": "3",
            "type": "t_uint256"
          }
        ],
        "numberOfBytes": "128"
      },
      "t_uint256": {
        "encoding": "inplace",
        "label": "uint256",
        "numberOfBytes": "32"
      }
    }
  }
}